{
  "contractName": "PixelCanvas",
  "abi": [
    {
      "anonymous": false,
      "inputs": [
        {
          "indexed": true,
          "internalType": "address",
          "name": "previousOwner",
          "type": "address"
        },
        {
          "indexed": true,
          "internalType": "address",
          "name": "newOwner",
          "type": "address"
        }
      ],
      "name": "OwnershipTransferred",
      "type": "event"
    },
    {
      "anonymous": false,
      "inputs": [
        {
          "indexed": false,
          "internalType": "uint256",
          "name": "x",
          "type": "uint256"
        },
        {
          "indexed": false,
          "internalType": "uint256",
          "name": "y",
          "type": "uint256"
        },
        {
          "indexed": false,
          "internalType": "uint8[3]",
          "name": "color",
          "type": "uint8[3]"
        },
        {
          "indexed": false,
          "internalType": "address",
          "name": "owner",
          "type": "address"
        }
      ],
      "name": "PixelUpdated",
      "type": "event"
    },
    {
      "inputs": [],
      "name": "owner",
      "outputs": [
        {
          "internalType": "address",
          "name": "",
          "type": "address"
        }
      ],
      "stateMutability": "view",
      "type": "function"
    },
    {
      "inputs": [],
      "name": "renounceOwnership",
      "outputs": [],
      "stateMutability": "nonpayable",
      "type": "function"
    },
    {
      "inputs": [
        {
          "internalType": "address",
          "name": "newOwner",
          "type": "address"
        }
      ],
      "name": "transferOwnership",
      "outputs": [],
      "stateMutability": "nonpayable",
      "type": "function"
    },
    {
      "inputs": [
        {
          "internalType": "uint256",
          "name": "x",
          "type": "uint256"
        },
        {
          "internalType": "uint256",
          "name": "y",
          "type": "uint256"
        },
        {
          "internalType": "uint8[3]",
          "name": "color",
          "type": "uint8[3]"
        }
      ],
      "name": "updatePixel",
      "outputs": [],
      "stateMutability": "nonpayable",
      "type": "function"
    },
    {
      "inputs": [
        {
          "internalType": "uint256",
          "name": "x",
          "type": "uint256"
        },
        {
          "internalType": "uint256",
          "name": "y",
          "type": "uint256"
        }
      ],
      "name": "getPixel",
      "outputs": [
        {
          "components": [
            {
              "internalType": "uint256",
              "name": "x",
              "type": "uint256"
            },
            {
              "internalType": "uint256",
              "name": "y",
              "type": "uint256"
            },
            {
              "internalType": "uint8[3]",
              "name": "color",
              "type": "uint8[3]"
            },
            {
              "internalType": "address",
              "name": "owner",
              "type": "address"
            }
          ],
          "internalType": "struct PixelCanvas.Pixel",
          "name": "",
          "type": "tuple"
        }
      ],
      "stateMutability": "view",
      "type": "function"
    }
  ],
  "bytecode": "0x608060405234801561001057600080fd5b5061001a3361001f565b61006f565b600080546001600160a01b038381166001600160a01b0319831681178455604051919092169283917f8be0079c531659141344cd1fd0a4f28419497f9722a3daafe3b4186f6b6457e09190a35050565b6107b68061007e6000396000f3fe608060405234801561001057600080fd5b50600436106100575760003560e01c806345498bd71461005c578063715018a6146100715780638a1dd162146100795780638da5cb5b146100a2578063f2fde38b146100bd575b600080fd5b61006f61006a3660046105e1565b6100d0565b005b61006f61023e565b61008c61008736600461067b565b610252565b604051610099919061069d565b60405180910390f35b6000546040516001600160a01b039091168152602001610099565b61006f6100cb3660046106fa565b61039e565b6103e883106101265760405162461bcd60e51b815260206004820152601a60248201527f5820636f6f7264696e617465206f7574206f6620626f756e647300000000000060448201526064015b60405180910390fd5b6103e882106101775760405162461bcd60e51b815260206004820152601a60248201527f5920636f6f7264696e617465206f7574206f6620626f756e6473000000000000604482015260640161011d565b60408051608081018252848152602080820185815282840185815233606085015260008881526001808552868220898352909452949094208351815590519181019190915591519091906101d190600283019060036104c1565b5060609190910151600390910180546001600160a01b0319166001600160a01b039092169190911790556040517f0aafd8358b48d5553b823713fa97698694a07bedec37ea33572c0fb6491715979061023190859085908590339061072a565b60405180910390a1505050565b610246610417565b6102506000610471565b565b61025a610554565b6103e883106102ab5760405162461bcd60e51b815260206004820152601a60248201527f5820636f6f7264696e617465206f7574206f6620626f756e6473000000000000604482015260640161011d565b6103e882106102fc5760405162461bcd60e51b815260206004820152601a60248201527f5920636f6f7264696e617465206f7574206f6620626f756e6473000000000000604482015260640161011d565b600083815260016020818152604080842086855282528084208151608081018352815481529381015492840192909252805160608101808352939492939185019290916002850191600391908390855b825461010083900a900460ff1681526020600192830181810494850194909303909202910180841161034c57505050928452505050600391909101546001600160a01b03166020909101529392505050565b6103a6610417565b6001600160a01b03811661040b5760405162461bcd60e51b815260206004820152602660248201527f4f776e61626c653a206e6577206f776e657220697320746865207a65726f206160448201526564647265737360d01b606482015260840161011d565b61041481610471565b50565b6000546001600160a01b031633146102505760405162461bcd60e51b815260206004820181905260248201527f4f776e61626c653a2063616c6c6572206973206e6f7420746865206f776e6572604482015260640161011d565b600080546001600160a01b038381166001600160a01b0319831681178455604051919092169283917f8be0079c531659141344cd1fd0a4f28419497f9722a3daafe3b4186f6b6457e09190a35050565b6001830191839082156105445791602002820160005b8382111561051557835183826101000a81548160ff021916908360ff16021790555092602001926001016020816000010492830192600103026104d7565b80156105425782816101000a81549060ff0219169055600101602081600001049283019260010302610515565b505b50610550929150610582565b5090565b60405180608001604052806000815260200160008152602001610575610597565b8152600060209091015290565b5b808211156105505760008155600101610583565b60405180606001604052806003906020820280368337509192915050565b634e487b7160e01b600052604160045260246000fd5b803560ff811681146105dc57600080fd5b919050565b600080600060a084860312156105f657600080fd5b83359250602080850135925085605f86011261061157600080fd5b6040516060810181811067ffffffffffffffff82111715610634576106346105b5565b6040528060a087018881111561064957600080fd5b604088015b8181101561066c5761065f816105cb565b835291840191840161064e565b50505080925050509250925092565b6000806040838503121561068e57600080fd5b50508035926020909101359150565b815181526020808301518183015260408084015160c084019291840160005b60038110156106dc57825160ff16825291830191908301906001016106bc565b50505050606092909201516001600160a01b031660a0919091015290565b60006020828403121561070c57600080fd5b81356001600160a01b038116811461072357600080fd5b9392505050565b848152602080820185905260c0820190604083018560005b600381101561076257815160ff1683529183019190830190600101610742565b505050506001600160a01b039290921660a09190910152939250505056fea2646970667358221220de0c8002fc235da5685e5b7429e5be344031f767f6c29432c0930300d93ec4b364736f6c634300080b0033",
  "immutableReferences": {},
  "source": "// SPDX-License-Identifier: MIT\npragma solidity >=0.4.22 <0.9.0;\n\nimport \"@openzeppelin/contracts/utils/math/SafeMath.sol\";\nimport \"@openzeppelin/contracts/access/Ownable.sol\";\n\ncontract PixelCanvas is Ownable {\n  using SafeMath for uint256;\n\n  struct Pixel {\n    uint256 x;\n    uint256 y;\n    uint8[3] color; // RGB color\n    address owner;\n  }\n\n  mapping(uint256 => mapping(uint256 => Pixel)) private pixelMap;\n\n  event PixelUpdated(uint256 x, uint256 y, uint8[3] color, address owner);\n\n  function updatePixel(uint256 x, uint256 y, uint8[3] memory color) public {\n    require(x < 1000, \"X coordinate out of bounds\");\n    require(y < 1000, \"Y coordinate out of bounds\");\n    pixelMap[x][y] = Pixel(x, y, color, msg.sender);\n    emit PixelUpdated(x, y, color, msg.sender);\n  }\n\n  function getPixel(uint256 x, uint256 y) public view returns (Pixel memory) {\n    require(x < 1000, \"X coordinate out of bounds\");\n    require(y < 1000, \"Y coordinate out of bounds\");\n    return pixelMap[x][y];\n  }\n}",
  "sourcePath": "/home/federico/rplace-blockchain/contracts/PixelCanvas.sol",
  "compiler": {
    "name": "solc",
    "version": "0.8.11+commit.d7f03943.Emscripten.clang"
  },
  "schemaVersion": "3.4.13",
  "updatedAt": "2023-04-23T02:03:37.966Z",
  "devdoc": {
    "kind": "dev",
    "methods": {
      "owner()": {
        "details": "Returns the address of the current owner."
      },
      "renounceOwnership()": {
        "details": "Leaves the contract without owner. It will not be possible to call `onlyOwner` functions anymore. Can only be called by the current owner. NOTE: Renouncing ownership will leave the contract without an owner, thereby removing any functionality that is only available to the owner."
      },
      "transferOwnership(address)": {
        "details": "Transfers ownership of the contract to a new account (`newOwner`). Can only be called by the current owner."
      }
    },
    "version": 1
  },
  "userdoc": {
    "kind": "user",
    "methods": {},
    "version": 1
  }
}